Microchip Technology Inc, v1.26 (A)

Tool Name:
  /opt/microchip/xc16/v1.26/bin/bin/../bin/elf-ld

Command:
  -p30F4011 \
  -o \
  dist/default/production/l1.X.production.elf \
  -L/opt/microchip/xc16/v1.26/bin/bin/.. \
  -L/opt/microchip/xc16/v1.26/bin/bin/../../lib \
  -L/opt/microchip/xc16/v1.26/bin/bin/../../lib/PIC24E \
  -L/opt/microchip/xc16/v1.26/bin/bin/../../support/PIC24E/gld \
  -L/opt/microchip/xc16/v1.26/bin/bin/../../lib/PIC24F \
  -L/opt/microchip/xc16/v1.26/bin/bin/../../support/PIC24F/gld \
  -L/opt/microchip/xc16/v1.26/bin/bin/../../lib/PIC24H \
  -L/opt/microchip/xc16/v1.26/bin/bin/../../support/PIC24H/gld \
  -L/opt/microchip/xc16/v1.26/bin/bin/../../lib/dsPIC30F \
  -L/opt/microchip/xc16/v1.26/bin/bin/../../support/dsPIC30F/gld \
  -L/opt/microchip/xc16/v1.26/bin/bin/../../lib/dsPIC33E \
  -L/opt/microchip/xc16/v1.26/bin/bin/../../support/dsPIC33E/gld \
  -L/opt/microchip/xc16/v1.26/bin/bin/../../lib/dsPIC33F \
  -L/opt/microchip/xc16/v1.26/bin/bin/../../support/dsPIC33F/gld \
  build/default/production/main.o \
  --defsym=__MPLAB_BUILD=1 \
  -Tp30F4011.gld.00 \
  --stack=16 \
  --check-sections \
  --data-init \
  --pack-data \
  --handles \
  --isr \
  --no-gc-sections \
  --fill-upper=0 \
  --stackguard=16 \
  --no-force-link \
  --smart-io \
  -Map=dist/default/production/l1.X.production.map \
  --report-mem \
  --memorysummary \
  dist/default/production/memoryfile.xml \
  -start-group \
  --library=lega-pic30-elf \
  --library=m-elf \
  --library=lega-c-elf \
  -end-group \

Archive member included because of file (symbol)

/opt/microchip/xc16/v1.26/bin/bin/../../lib/dsPIC30F/libp30F4011-elf.a(OpenTimer3.o)
                              build/default/production/main.o (_OpenTimer3)
/opt/microchip/xc16/v1.26/bin/bin/../../lib/dsPIC30F/libp30F4011-elf.a(OpenUART2.o)
                              build/default/production/main.o (_OpenUART2)
/opt/microchip/xc16/v1.26/bin/bin/../../lib/liblega-pic30-elf.a(crt0_standard.o)
                              (__resetPRI)
/opt/microchip/xc16/v1.26/bin/bin/../../lib/liblega-pic30-elf.a(data_init_standard.o)
                              /opt/microchip/xc16/v1.26/bin/bin/../../lib/liblega-pic30-elf.a(crt0_standard.o) (__data_init_standard)
/opt/microchip/xc16/v1.26/bin/bin/../../lib/liblega-pic30-elf.a(c30_uart.Leo)
                              build/default/production/main.o (___C30_UART)
/opt/microchip/xc16/v1.26/bin/bin/../../lib/liblega-c-elf.a(fputc.XXeo)
                              build/default/production/main.o (_fputc)
/opt/microchip/xc16/v1.26/bin/bin/../../lib/liblega-c-elf.a(puts.XXeo)
                              build/default/production/main.o (_puts)
/opt/microchip/xc16/v1.26/bin/bin/../../lib/liblega-c-elf.a(rand.XXeo)
                              build/default/production/main.o (_rand)
/opt/microchip/xc16/v1.26/bin/bin/../../lib/liblega-c-elf.a(xfiles.XXeo)
                              /opt/microchip/xc16/v1.26/bin/bin/../../lib/liblega-c-elf.a(puts.XXeo) (__Stdout)
/opt/microchip/xc16/v1.26/bin/bin/../../lib/liblega-c-elf.a(xfwprep.XXeo)
                              /opt/microchip/xc16/v1.26/bin/bin/../../lib/liblega-c-elf.a(fputc.XXeo) (__Fwprep)
/opt/microchip/xc16/v1.26/bin/bin/../../lib/liblega-c-elf.a(xstoul.XXeo)
                              build/default/production/main.o (__Stoul)
/opt/microchip/xc16/v1.26/bin/bin/../../lib/liblega-c-elf.a(isspace.XXelso)
                              /opt/microchip/xc16/v1.26/bin/bin/../../lib/liblega-c-elf.a(xstoul.XXeo) (_isspace)
/opt/microchip/xc16/v1.26/bin/bin/../../lib/liblega-c-elf.a(tolower.XXelso)
                              /opt/microchip/xc16/v1.26/bin/bin/../../lib/liblega-c-elf.a(xstoul.XXeo) (_tolower)
/opt/microchip/xc16/v1.26/bin/bin/../../lib/liblega-c-elf.a(errno.XXelo)
                              /opt/microchip/xc16/v1.26/bin/bin/../../lib/liblega-c-elf.a(xstoul.XXeo) (_errno)
/opt/microchip/xc16/v1.26/bin/bin/../../lib/liblega-c-elf.a(fclose.XXelo)
                              /opt/microchip/xc16/v1.26/bin/bin/../../lib/liblega-c-elf.a(xfwprep.XXeo) (__Closreg)
/opt/microchip/xc16/v1.26/bin/bin/../../lib/liblega-c-elf.a(fflush.XXelo)
                              /opt/microchip/xc16/v1.26/bin/bin/../../lib/liblega-c-elf.a(fputc.XXeo) (__DNKfflush)
/opt/microchip/xc16/v1.26/bin/bin/../../lib/liblega-c-elf.a(xatexit.XXelo)
                              /opt/microchip/xc16/v1.26/bin/bin/../../lib/liblega-c-elf.a(fclose.XXelo) (__Atexit)
/opt/microchip/xc16/v1.26/bin/bin/../../lib/liblega-c-elf.a(printf_cdnopuxX.XXeo)
                              build/default/production/main.o (__printf_cdnopuxX)
/opt/microchip/xc16/v1.26/bin/bin/../../lib/liblega-c-elf.a(xprintf_cdnopuxX.XXeo)
                              /opt/microchip/xc16/v1.26/bin/bin/../../lib/liblega-c-elf.a(printf_cdnopuxX.XXeo) (___Printf_cdnopuxX)
/opt/microchip/xc16/v1.26/bin/bin/../../lib/liblega-c-elf.a(xputfld_cdnopuxX.XXeo)
                              /opt/microchip/xc16/v1.26/bin/bin/../../lib/liblega-c-elf.a(xprintf_cdnopuxX.XXeo) (___Putfld_cdnopuxX)
/opt/microchip/xc16/v1.26/bin/bin/../../lib/liblega-c-elf.a(fputs.XXeo)
                              /opt/microchip/xc16/v1.26/bin/bin/../../lib/liblega-c-elf.a(puts.XXeo) (_fputs)
/opt/microchip/xc16/v1.26/bin/bin/../../lib/liblega-c-elf.a(free.XXeo)
                              /opt/microchip/xc16/v1.26/bin/bin/../../lib/liblega-c-elf.a(fclose.XXelo) (_free)
/opt/microchip/xc16/v1.26/bin/bin/../../lib/liblega-c-elf.a(fwrite.XXeo)
                              /opt/microchip/xc16/v1.26/bin/bin/../../lib/liblega-c-elf.a(printf_cdnopuxX.XXeo) (_fwrite)
/opt/microchip/xc16/v1.26/bin/bin/../../lib/liblega-c-elf.a(malloc.XXeo)
                              /opt/microchip/xc16/v1.26/bin/bin/../../lib/liblega-c-elf.a(free.XXeo) (__Aldata)
/opt/microchip/xc16/v1.26/bin/bin/../../lib/liblega-c-elf.a(memchr.XXeo)
                              /opt/microchip/xc16/v1.26/bin/bin/../../lib/liblega-c-elf.a(xstoul.XXeo) (_memchr)
/opt/microchip/xc16/v1.26/bin/bin/../../lib/liblega-c-elf.a(memcpy.XXeo)
                              /opt/microchip/xc16/v1.26/bin/bin/../../lib/liblega-c-elf.a(fputs.XXeo) (_memcpy)
/opt/microchip/xc16/v1.26/bin/bin/../../lib/liblega-c-elf.a(strchr.XXeo)
                              /opt/microchip/xc16/v1.26/bin/bin/../../lib/liblega-c-elf.a(xprintf_cdnopuxX.XXeo) (_strchr)
/opt/microchip/xc16/v1.26/bin/bin/../../lib/liblega-c-elf.a(strlen.XXeo)
                              /opt/microchip/xc16/v1.26/bin/bin/../../lib/liblega-c-elf.a(fputs.XXeo) (_strlen)
/opt/microchip/xc16/v1.26/bin/bin/../../lib/liblega-c-elf.a(strrchr.XXeo)
                              /opt/microchip/xc16/v1.26/bin/bin/../../lib/liblega-c-elf.a(fputs.XXeo) (_strrchr)
/opt/microchip/xc16/v1.26/bin/bin/../../lib/liblega-c-elf.a(xgetmem.XXeo)
                              /opt/microchip/xc16/v1.26/bin/bin/../../lib/liblega-c-elf.a(malloc.XXeo) (__Getmem)
/opt/microchip/xc16/v1.26/bin/bin/../../lib/liblega-c-elf.a(xlitob.XXeo)
                              /opt/microchip/xc16/v1.26/bin/bin/../../lib/liblega-c-elf.a(xputfld_cdnopuxX.XXeo) (__Litob)
/opt/microchip/xc16/v1.26/bin/bin/../../lib/liblega-c-elf.a(xputtxt.XXeo)
                              /opt/microchip/xc16/v1.26/bin/bin/../../lib/liblega-c-elf.a(xprintf_cdnopuxX.XXeo) (__Puttxt)
/opt/microchip/xc16/v1.26/bin/bin/../../lib/liblega-c-elf.a(xvacopy.XXeo)
                              /opt/microchip/xc16/v1.26/bin/bin/../../lib/liblega-c-elf.a(xprintf_cdnopuxX.XXeo) (__Vacopy)
/opt/microchip/xc16/v1.26/bin/bin/../../lib/liblega-pic30-elf.a(close.Leo)
                              /opt/microchip/xc16/v1.26/bin/bin/../../lib/liblega-c-elf.a(fclose.XXelo) (_close)
/opt/microchip/xc16/v1.26/bin/bin/../../lib/liblega-pic30-elf.a(write.Leo)
                              /opt/microchip/xc16/v1.26/bin/bin/../../lib/liblega-c-elf.a(fflush.XXelo) (_write)
/opt/microchip/xc16/v1.26/bin/bin/../../lib/liblega-pic30-elf.a(remove.Leo)
                              /opt/microchip/xc16/v1.26/bin/bin/../../lib/liblega-c-elf.a(fclose.XXelo) (_remove)
/opt/microchip/xc16/v1.26/bin/bin/../../lib/liblega-pic30-elf.a(sbrk.Leo)
                              /opt/microchip/xc16/v1.26/bin/bin/../../lib/liblega-c-elf.a(xgetmem.XXeo) (_sbrk)
/opt/microchip/xc16/v1.26/bin/bin/../../lib/liblega-pic30-elf.a(brk.Lelo)
                              /opt/microchip/xc16/v1.26/bin/bin/../../lib/liblega-pic30-elf.a(sbrk.Leo) (_brk)
/opt/microchip/xc16/v1.26/bin/bin/../../lib/libm-elf.a(divsi3.eo)
                              /opt/microchip/xc16/v1.26/bin/bin/../../lib/liblega-c-elf.a(xlitob.XXeo) (___divsi3)
/opt/microchip/xc16/v1.26/bin/bin/../../lib/libm-elf.a(udivsi3.eo)
                              /opt/microchip/xc16/v1.26/bin/bin/../../lib/liblega-c-elf.a(xstoul.XXeo) (___udivsi3)
/opt/microchip/xc16/v1.26/bin/bin/../../lib/libm-elf.a(umodsi3.eo)
                              /opt/microchip/xc16/v1.26/bin/bin/../../lib/liblega-c-elf.a(xlitob.XXeo) (___umodsi3)
/opt/microchip/xc16/v1.26/bin/bin/../../lib/libm-elf.a(mulsi3.eo)
                              /opt/microchip/xc16/v1.26/bin/bin/../../lib/liblega-c-elf.a(rand.XXeo) (___mulsi3)
/opt/microchip/xc16/v1.26/bin/bin/../../lib/libm-elf.a(divmoddi3.eo)
                              /opt/microchip/xc16/v1.26/bin/bin/../../lib/liblega-c-elf.a(xlitob.XXeo) (___udivdi3)


xc16-ld 1.26 (A)

Program Memory  [Origin = 0x100, Length = 0x7f00]

section                    address   length (PC units)   length (bytes) (dec)
-------                    -------   -----------------   --------------------
.text                        0x100              0x1256          0x1b81  (7041)
.const                      0x1356                0x46            0x69  (105)
.text                       0x139c               0x300           0x480  (1152)
.dinit                      0x169c               0x11a           0x1a7  (423)
.shared.dinit               0x17b6                 0x2             0x3  (3)

                 Total program memory used (bytes):         0x2214  (8724) 17%


Ivt Memory  [Origin = 0x4, Length = 0x7c]

section                    address   length (PC units)   length (bytes) (dec)
-------                    -------   -----------------   --------------------
.ivt._T3Interrupt             0x22                 0x2             0x3  (3)
.ivt._ADCInterrupt            0x2a                 0x2             0x3  (3)
.ivt._U2RXInterrupt           0x44                 0x2             0x3  (3)


Data Memory  [Origin = 0x800, Length = 0x800]

section                    address      alignment gaps    total length  (dec)
-------                    -------      --------------    -------------------
.nbss                        0x800                   0           0x424  (1060)
.ndata                       0xc24                   0             0x4  (4)
.bss                         0xc28                   0            0x8a  (138)
.data                        0xcb2                   0           0x112  (274)
.bss                         0xdc4                   0             0x8  (8)
.data                        0xdcc                   0             0x2  (2)
.bss                         0xdce                   0             0x2  (2)
.data                        0xdd0                   0             0x2  (2)
.bss                         0xdd2                   0             0x2  (2)

                 Total data memory used (bytes):          0x5d4  (1492) 72%


Dynamic Memory Usage

region                     address                      maximum length  (dec)
------                     -------                      ---------------------
heap                             0                                   0  (0)
stack                        0xdd4                               0x22c  (556)

                 Maximum dynamic memory (bytes):          0x22c  (556)


External Symbols in Data Memory (by address):

                    0x0800                  _str_pos
                    0x0802                  _rx_buf
                    0x0816                  _command_avail
                    0x0818                  _t_prev
                    0x081a                  _t_cur
                    0x081c                  _t_enable
                    0x081e                  _jitter
                    0x0820                  _PRj
                    0x0822                  _PRf
                    0x0824                  _dat
                    0x0c24                  _t_lvl
                    0x0c26                  _dati
                    0x0c28                  __Randinit
                    0x0c2a                  __Tls_setup__Randinit
                    0x0c2c                  __Tls_setup__Randseed
                    0x0cb2                  __Stdin
                    0x0cda                  __Stdout
                    0x0d02                  __Stderr
                    0x0d2a                  __Files
                    0x0dc0                  __Randseed
                    0x0dc4                  _errno
                    0x0dc6                  __Tls_setup_errno
                    0x0dc8                  __Aldata
                    0x0dcc                  ___C30_UART
                    0x0dd0                  __Size_block
                    0x0dd2                  ___curbrk

External Symbols in Data Memory (by name):

                    0x0822                  _PRf
                    0x0820                  _PRj
                    0x0dc8                  __Aldata
                    0x0d2a                  __Files
                    0x0c28                  __Randinit
                    0x0dc0                  __Randseed
                    0x0dd0                  __Size_block
                    0x0d02                  __Stderr
                    0x0cb2                  __Stdin
                    0x0cda                  __Stdout
                    0x0c2a                  __Tls_setup__Randinit
                    0x0c2c                  __Tls_setup__Randseed
                    0x0dc6                  __Tls_setup_errno
                    0x0dcc                  ___C30_UART
                    0x0dd2                  ___curbrk
                    0x0816                  _command_avail
                    0x0824                  _dat
                    0x0c26                  _dati
                    0x0dc4                  _errno
                    0x081e                  _jitter
                    0x0802                  _rx_buf
                    0x0800                  _str_pos
                    0x081a                  _t_cur
                    0x081c                  _t_enable
                    0x0c24                  _t_lvl
                    0x0818                  _t_prev

External Symbols in Program Memory (by address):

                  0x000100                  __resetPRI
                  0x00012c                  __psv_init
                  0x00013c                  __data_init
                  0x00013c                  __data_init_standard
                  0x0001b4                  __DefaultInterrupt
                  0x00027a                  _OpenTimer3
                  0x000282                  _OpenUART2
                  0x00028a                  _fputc
                  0x0002d6                  _puts
                  0x0002ec                  _rand
                  0x00037a                  __Fwprep
                  0x000408                  __Stoul
                  0x00053c                  _isspace
                  0x00054c                  _tolower
                  0x00055a                  __Geterrno
                  0x00056a                  __Closreg
                  0x00057c                  _fclose
                  0x00060c                  fclose.XXelo:_closeall
                  0x00062c                  __DNKfflush
                  0x0006a0                  __Atexit
                  0x0006b8                  printf_cdnopuxX.XXeo:_prout
                  0x0006d4                  __printf_cdnopuxX
                  0x0006e4                  ___Printf_cdnopuxX
                  0x000848                  ___Putfld_cdnopuxX
                  0x000a58                  _fputs
                  0x000ae8                  _free
                  0x000b4c                  _fwrite
                  0x000c5a                  _malloc
                  0x000cae                  _memchr
                  0x000cc2                  _memcpy
                  0x000cd0                  _strchr
                  0x000ce8                  _strlen
                  0x000cf4                  _strrchr
                  0x000d08                  __Getmem
                  0x000d1c                  __Litob
                  0x000f7a                  __Puttxt
                  0x0010f2                  __Vacopy
                  0x001102                  ___divsi3
                  0x001120                  ___udivsi3
                  0x001140                  ___umodsi3
                  0x001146                  ___mulp32eds3
                  0x001146                  ___mulp32peds3
                  0x001146                  ___mulsi3
                  0x00119e                  ___udivmoddi3
                  0x001284                  ___udivdi3
                  0x001292                  ___umoddi3
                  0x00129a                  ___divdi3
                  0x0012fa                  ___moddi3
                  0x00139c                  _intrep_command
                  0x001454                  __U2RXInterrupt
                  0x001520                  __ADCInterrupt
                  0x001574                  __T3Interrupt
                  0x0015e8                  _main

External Symbols in Program Memory (by name):

                  0x00027a                  _OpenTimer3
                  0x000282                  _OpenUART2
                  0x001520                  __ADCInterrupt
                  0x0006a0                  __Atexit
                  0x00056a                  __Closreg
                  0x00062c                  __DNKfflush
                  0x0001b4                  __DefaultInterrupt
                  0x00037a                  __Fwprep
                  0x00055a                  __Geterrno
                  0x000d08                  __Getmem
                  0x000d1c                  __Litob
                  0x000f7a                  __Puttxt
                  0x000408                  __Stoul
                  0x001574                  __T3Interrupt
                  0x001454                  __U2RXInterrupt
                  0x0010f2                  __Vacopy
                  0x0006e4                  ___Printf_cdnopuxX
                  0x000848                  ___Putfld_cdnopuxX
                  0x00129a                  ___divdi3
                  0x001102                  ___divsi3
                  0x0012fa                  ___moddi3
                  0x001146                  ___mulp32eds3
                  0x001146                  ___mulp32peds3
                  0x001146                  ___mulsi3
                  0x001284                  ___udivdi3
                  0x00119e                  ___udivmoddi3
                  0x001120                  ___udivsi3
                  0x001292                  ___umoddi3
                  0x001140                  ___umodsi3
                  0x00013c                  __data_init
                  0x00013c                  __data_init_standard
                  0x0006d4                  __printf_cdnopuxX
                  0x00012c                  __psv_init
                  0x000100                  __resetPRI
                  0x00057c                  _fclose
                  0x00028a                  _fputc
                  0x000a58                  _fputs
                  0x000ae8                  _free
                  0x000b4c                  _fwrite
                  0x00139c                  _intrep_command
                  0x00053c                  _isspace
                  0x0015e8                  _main
                  0x000c5a                  _malloc
                  0x000cae                  _memchr
                  0x000cc2                  _memcpy
                  0x0002d6                  _puts
                  0x0002ec                  _rand
                  0x000cd0                  _strchr
                  0x000ce8                  _strlen
                  0x000cf4                  _strrchr
                  0x00054c                  _tolower
                  0x00060c                  fclose.XXelo:_closeall
                  0x0006b8                  printf_cdnopuxX.XXeo:_prout

Memory Configuration

Name             Origin             Length             Attributes
data             0x000800           0x000800           a !xr
reset            0x000000           0x000004  
ivt              0x000004           0x00007c  
_reserved        0x000080           0x000004  
aivt             0x000084           0x00007c  
program          0x000100           0x007f00           xr
eedata           0x7ffc00           0x000400  
FUID0            0x8005c0           0x000002  
FUID1            0x8005c2           0x000002  
FUID2            0x8005c4           0x000002  
FUID3            0x8005c6           0x000002  
FOSC             0xf80000           0x000002  
FWDT             0xf80002           0x000002  
FBORPOR          0xf80004           0x000002  
RESERVED1        0xf80006           0x000002  
RESERVED2        0xf80008           0x000002  
FGS              0xf8000a           0x000002  
FICD             0xf8000c           0x000002  
*default*        0x000000           0xffffffff  

Linker script and memory map

LOAD build/default/production/main.o
                    0x0001                  __MPLAB_BUILD = 0x1
LOAD /opt/microchip/xc16/v1.26/bin/bin/../../lib/dsPIC30F/libp30F4011-elf.a
LOAD /opt/microchip/xc16/v1.26/bin/bin/../../lib/libfx-elf.a
                    0x8005c0                  __FUID0 = 0x8005c0
                    0x8005c2                  __FUID1 = 0x8005c2
                    0x8005c4                  __FUID2 = 0x8005c4
                    0x8005c6                  __FUID3 = 0x8005c6
                    0xf80000                  __FOSC = 0xf80000
                    0xf80002                  __FWDT = 0xf80002
                    0xf80004                  __FBORPOR = 0xf80004
                    0xf80006                  __RESERVED1 = 0xf80006
                    0xf80008                  __RESERVED2 = 0xf80008
                    0xf8000a                  __FGS = 0xf8000a
                    0xf8000c                  __FICD = 0xf8000c
                    0x0001                  __NO_HANDLES = 0x1
                    0x0100                  __CODE_BASE = 0x100
                    0x7f00                  __CODE_LENGTH = 0x7f00
                    0x0004                  __IVT_BASE = 0x4
                    0x0084                  __AIVT_BASE = 0x84
                    0x0800                  __DATA_BASE = 0x800
                    0x0800                  __DATA_LENGTH = 0x800
                    0x0c00                  __YDATA_BASE = 0xc00

.reset            0x000000          0x4
                  0x000000          0x2 SHORT 0x100 ABSOLUTE (__reset)
                  0x000001          0x2 SHORT 0x4
                  0x000002          0x2 SHORT 0x0 ((ABSOLUTE (__reset) >> 0x10) & 0x7f)
                  0x000003          0x2 SHORT 0x0

.text             0x000100       0x1256
 *(.init)
 .init            0x000100         0x3c /opt/microchip/xc16/v1.26/bin/bin/../../lib/liblega-pic30-elf.a(crt0_standard.o)
                  0x000100                  __reset
                  0x000100                  __resetPRI
                  0x00012c                  __psv_init
 .init            0x00013c         0x6c /opt/microchip/xc16/v1.26/bin/bin/../../lib/liblega-pic30-elf.a(data_init_standard.o)
                  0x00013c                  __data_init
                  0x00013c                  __data_init_standard
 *(.user_init)
 *(.handle)
 *(.isr*)
 .isr             0x0001b4          0x4 default_isr
                  0x0001b4                  __DefaultInterrupt
 *(.libc)
 .libc            0x0001b8         0x12 /opt/microchip/xc16/v1.26/bin/bin/../../lib/liblega-pic30-elf.a(close.Leo)
                  0x0001b8                  _close
 .libc            0x0001ca         0x5c /opt/microchip/xc16/v1.26/bin/bin/../../lib/liblega-pic30-elf.a(write.Leo)
                  0x0001ca                  _write
 .libc            0x000226         0x12 /opt/microchip/xc16/v1.26/bin/bin/../../lib/liblega-pic30-elf.a(remove.Leo)
                  0x000226                  _remove
 .libc            0x000238         0x28 /opt/microchip/xc16/v1.26/bin/bin/../../lib/liblega-pic30-elf.a(sbrk.Leo)
                  0x000238                  _sbrk
 .libc            0x000260         0x1a /opt/microchip/xc16/v1.26/bin/bin/../../lib/liblega-pic30-elf.a(brk.Lelo)
                  0x000260                  _brk
 *(.libm)
 *(.libdsp)
 *(.lib*)
 .libperi         0x00027a          0x8 /opt/microchip/xc16/v1.26/bin/bin/../../lib/dsPIC30F/libp30F4011-elf.a(OpenTimer3.o)
                  0x00027a                  _OpenTimer3
 .libperi         0x000282          0x8 /opt/microchip/xc16/v1.26/bin/bin/../../lib/dsPIC30F/libp30F4011-elf.a(OpenUART2.o)
                  0x000282                  _OpenUART2
 .libc.fputc      0x00028a         0x4c /opt/microchip/xc16/v1.26/bin/bin/../../lib/liblega-c-elf.a(fputc.XXeo)
                  0x00028a                  _fputc
 .libc.puts       0x0002d6         0x16 /opt/microchip/xc16/v1.26/bin/bin/../../lib/liblega-c-elf.a(puts.XXeo)
                  0x0002d6                  _puts
 .libc.rand       0x0002ec         0x8e /opt/microchip/xc16/v1.26/bin/bin/../../lib/liblega-c-elf.a(rand.XXeo)
                  0x0002ec                  _rand
 .libc._Fwprep    0x00037a         0x8e /opt/microchip/xc16/v1.26/bin/bin/../../lib/liblega-c-elf.a(xfwprep.XXeo)
                  0x00037a                  __Fwprep
 .libc._Stoul     0x000408        0x134 /opt/microchip/xc16/v1.26/bin/bin/../../lib/liblega-c-elf.a(xstoul.XXeo)
                  0x000408                  __Stoul
 .libc.isspace    0x00053c         0x10 /opt/microchip/xc16/v1.26/bin/bin/../../lib/liblega-c-elf.a(isspace.XXelso)
                  0x00053c                  _isspace
 .libc.tolower    0x00054c          0xe /opt/microchip/xc16/v1.26/bin/bin/../../lib/liblega-c-elf.a(tolower.XXelso)
                  0x00054c                  _tolower
 .libc._Geterrno
                  0x00055a          0xc /opt/microchip/xc16/v1.26/bin/bin/../../lib/liblega-c-elf.a(errno.XXelo)
                  0x00055a                  __Geterrno
 .libc.closeallreg
                  0x000566          0x4 /opt/microchip/xc16/v1.26/bin/bin/../../lib/liblega-c-elf.a(fclose.XXelo)
 .libc._Closreg
                  0x00056a         0x12 /opt/microchip/xc16/v1.26/bin/bin/../../lib/liblega-c-elf.a(fclose.XXelo)
                  0x00056a                  __Closreg
 .libc.fclose     0x00057c         0x90 /opt/microchip/xc16/v1.26/bin/bin/../../lib/liblega-c-elf.a(fclose.XXelo)
                  0x00057c                  _fclose
 .libc.closeall
                  0x00060c         0x20 /opt/microchip/xc16/v1.26/bin/bin/../../lib/liblega-c-elf.a(fclose.XXelo)
                  0x00060c                  fclose.XXelo:_closeall
 .libc._DNKfflush
                  0x00062c         0x74 /opt/microchip/xc16/v1.26/bin/bin/../../lib/liblega-c-elf.a(fflush.XXelo)
                  0x00062c                  __DNKfflush
 .libc._Atexit    0x0006a0         0x18 /opt/microchip/xc16/v1.26/bin/bin/../../lib/liblega-c-elf.a(xatexit.XXelo)
                  0x0006a0                  __Atexit
 .libc.prout      0x0006b8         0x1c /opt/microchip/xc16/v1.26/bin/bin/../../lib/liblega-c-elf.a(printf_cdnopuxX.XXeo)
                  0x0006b8                  printf_cdnopuxX.XXeo:_prout
 .libc._printf_cdnopuxX
                  0x0006d4         0x10 /opt/microchip/xc16/v1.26/bin/bin/../../lib/liblega-c-elf.a(printf_cdnopuxX.XXeo)
                  0x0006d4                  __printf_cdnopuxX
 .libc.__Printf_cdnopuxX
                  0x0006e4        0x164 /opt/microchip/xc16/v1.26/bin/bin/../../lib/liblega-c-elf.a(xprintf_cdnopuxX.XXeo)
                  0x0006e4                  ___Printf_cdnopuxX
 .libc.__Putfld_cdnopuxX
                  0x000848        0x210 /opt/microchip/xc16/v1.26/bin/bin/../../lib/liblega-c-elf.a(xputfld_cdnopuxX.XXeo)
                  0x000848                  ___Putfld_cdnopuxX
 .libc.fputs      0x000a58         0x90 /opt/microchip/xc16/v1.26/bin/bin/../../lib/liblega-c-elf.a(fputs.XXeo)
                  0x000a58                  _fputs
 .libc.free       0x000ae8         0x64 /opt/microchip/xc16/v1.26/bin/bin/../../lib/liblega-c-elf.a(free.XXeo)
                  0x000ae8                  _free
 .libc.fwrite     0x000b4c         0xa8 /opt/microchip/xc16/v1.26/bin/bin/../../lib/liblega-c-elf.a(fwrite.XXeo)
                  0x000b4c                  _fwrite
 .libc.findmem    0x000bf4         0x66 /opt/microchip/xc16/v1.26/bin/bin/../../lib/liblega-c-elf.a(malloc.XXeo)
 .libc.malloc     0x000c5a         0x54 /opt/microchip/xc16/v1.26/bin/bin/../../lib/liblega-c-elf.a(malloc.XXeo)
                  0x000c5a                  _malloc
 .libc.memchr     0x000cae         0x14 /opt/microchip/xc16/v1.26/bin/bin/../../lib/liblega-c-elf.a(memchr.XXeo)
                  0x000cae                  _memchr
 .libc.memcpy     0x000cc2          0xe /opt/microchip/xc16/v1.26/bin/bin/../../lib/liblega-c-elf.a(memcpy.XXeo)
                  0x000cc2                  _memcpy
 .libc.strchr     0x000cd0         0x18 /opt/microchip/xc16/v1.26/bin/bin/../../lib/liblega-c-elf.a(strchr.XXeo)
                  0x000cd0                  _strchr
 .libc.strlen     0x000ce8          0xc /opt/microchip/xc16/v1.26/bin/bin/../../lib/liblega-c-elf.a(strlen.XXeo)
                  0x000ce8                  _strlen
 .libc.strrchr    0x000cf4         0x14 /opt/microchip/xc16/v1.26/bin/bin/../../lib/liblega-c-elf.a(strrchr.XXeo)
                  0x000cf4                  _strrchr
 .libc._Getmem    0x000d08         0x14 /opt/microchip/xc16/v1.26/bin/bin/../../lib/liblega-c-elf.a(xgetmem.XXeo)
                  0x000d08                  __Getmem
 .libc._Litob     0x000d1c        0x25e /opt/microchip/xc16/v1.26/bin/bin/../../lib/liblega-c-elf.a(xlitob.XXeo)
                  0x000d1c                  __Litob
 .libc._Puttxt    0x000f7a        0x178 /opt/microchip/xc16/v1.26/bin/bin/../../lib/liblega-c-elf.a(xputtxt.XXeo)
                  0x000f7a                  __Puttxt
 .libc._Vacopy    0x0010f2          0x4 /opt/microchip/xc16/v1.26/bin/bin/../../lib/liblega-c-elf.a(xvacopy.XXeo)
                  0x0010f2                  __Vacopy
 .libc.doclose    0x0010f6          0x4 /opt/microchip/xc16/v1.26/bin/bin/../../lib/liblega-pic30-elf.a(close.Leo)
 .libc.dowrite    0x0010fa          0x4 /opt/microchip/xc16/v1.26/bin/bin/../../lib/liblega-pic30-elf.a(write.Leo)
 .libc.doremove
                  0x0010fe          0x4 /opt/microchip/xc16/v1.26/bin/bin/../../lib/liblega-pic30-elf.a(remove.Leo)
 .libm.divsi3     0x001102         0x1e /opt/microchip/xc16/v1.26/bin/bin/../../lib/libm-elf.a(divsi3.eo)
                  0x001102                  ___divsi3
 .libm.udivsi3    0x001120         0x20 /opt/microchip/xc16/v1.26/bin/bin/../../lib/libm-elf.a(udivsi3.eo)
                  0x001120                  ___udivsi3
 .libm.umodsi3    0x001140          0x6 /opt/microchip/xc16/v1.26/bin/bin/../../lib/libm-elf.a(umodsi3.eo)
                  0x001140                  ___umodsi3
 .libm.mulsi3     0x001146          0xc /opt/microchip/xc16/v1.26/bin/bin/../../lib/libm-elf.a(mulsi3.eo)
                  0x001146                  ___mulp32eds3
                  0x001146                  ___mulp32peds3
                  0x001146                  ___mulsi3
 .libm.__PplusBdi
                  0x001152         0x26 /opt/microchip/xc16/v1.26/bin/bin/../../lib/libm-elf.a(divmoddi3.eo)
 .libm.__PminusBdi
                  0x001178         0x26 /opt/microchip/xc16/v1.26/bin/bin/../../lib/libm-elf.a(divmoddi3.eo)
 .libm.__udivmoddi3
                  0x00119e         0xe6 /opt/microchip/xc16/v1.26/bin/bin/../../lib/libm-elf.a(divmoddi3.eo)
                  0x00119e                  ___udivmoddi3
 .libm.__udivdi3
                  0x001284          0xe /opt/microchip/xc16/v1.26/bin/bin/../../lib/libm-elf.a(divmoddi3.eo)
                  0x001284                  ___udivdi3
 .libm.__umoddi3
                  0x001292          0x8 /opt/microchip/xc16/v1.26/bin/bin/../../lib/libm-elf.a(divmoddi3.eo)
                  0x001292                  ___umoddi3
 .libm.__divdi3
                  0x00129a         0x60 /opt/microchip/xc16/v1.26/bin/bin/../../lib/libm-elf.a(divmoddi3.eo)
                  0x00129a                  ___divdi3
 .libm.__moddi3
                  0x0012fa         0x5c /opt/microchip/xc16/v1.26/bin/bin/../../lib/libm-elf.a(divmoddi3.eo)
                  0x0012fa                  ___moddi3

usercode
 *(usercode)

__FUID0
 *(__FUID0.sec*)

__FUID1
 *(__FUID1.sec*)

__FUID2
 *(__FUID2.sec*)

__FUID3
 *(__FUID3.sec*)

__FOSC            0xf80000          0x2
 *(__FOSC.sec*)
 __FOSC.sec       0xf80000          0x2 build/default/production/main.o

__FWDT            0xf80002          0x2
 *(__FWDT.sec*)
 __FWDT.sec       0xf80002          0x2 build/default/production/main.o

__FBORPOR
 *(__FBORPOR.sec*)

__RESERVED1
 *(__RESERVED1.sec*)

__RESERVED2
 *(__RESERVED2.sec*)

__FGS
 *(__FGS.sec*)

__FICD
 *(__FICD.sec*)

user_eedata
 *(user_eedata)

userdata
 *(userdata)

.comment          0x000000         0x5e
 *(.comment)
 .comment         0x000000         0x5e /opt/microchip/xc16/v1.26/bin/bin/../../lib/liblega-c-elf.a(xfiles.XXeo)

.debug_info       0x000000       0x1957
 *(.debug_info)
 .debug_info      0x000000       0x1957 build/default/production/main.o
 *(.gnu.linkonce.wi.*)

.debug_abbrev     0x000000        0x19b
 *(.debug_abbrev)
 .debug_abbrev    0x000000        0x19b build/default/production/main.o

.debug_line       0x000000        0x182
 *(.debug_line)
 .debug_line      0x000000        0x182 build/default/production/main.o

.debug_frame      0x000000        0x122
 *(.debug_frame)
 .debug_frame     0x000000        0x122 build/default/production/main.o

.debug_str        0x000000         0xb6
 *(.debug_str)
 .debug_str       0x000000         0xb6 build/default/production/main.o

.debug_loc
 *(.debug_loc)

.debug_macinfo
 *(.debug_macinfo)

.debug_pubnames
                  0x000000         0xf9
 *(.debug_pubnames)
 .debug_pubnames
                  0x000000         0xf9 build/default/production/main.o

.debug_ranges
 *(.debug_ranges)

.debug_aranges    0x000000         0x18
 *(.debug_aranges)
 .debug_aranges
                  0x000000         0x18 build/default/production/main.o
                    0x0000                  WREG0 = 0x0
                    0x0000                  _WREG0 = 0x0
                    0x0002                  WREG1 = 0x2
                    0x0002                  _WREG1 = 0x2
                    0x0004                  WREG2 = 0x4
                    0x0004                  _WREG2 = 0x4
                    0x0006                  WREG3 = 0x6
                    0x0006                  _WREG3 = 0x6
                    0x0008                  WREG4 = 0x8
                    0x0008                  _WREG4 = 0x8
                    0x000a                  WREG5 = 0xa
                    0x000a                  _WREG5 = 0xa
                    0x000c                  WREG6 = 0xc
                    0x000c                  _WREG6 = 0xc
                    0x000e                  WREG7 = 0xe
                    0x000e                  _WREG7 = 0xe
                    0x0010                  WREG8 = 0x10
                    0x0010                  _WREG8 = 0x10
                    0x0012                  WREG9 = 0x12
                    0x0012                  _WREG9 = 0x12
                    0x0014                  WREG10 = 0x14
                    0x0014                  _WREG10 = 0x14
                    0x0016                  WREG11 = 0x16
                    0x0016                  _WREG11 = 0x16
                    0x0018                  WREG12 = 0x18
                    0x0018                  _WREG12 = 0x18
                    0x001a                  WREG13 = 0x1a
                    0x001a                  _WREG13 = 0x1a
                    0x001c                  WREG14 = 0x1c
                    0x001c                  _WREG14 = 0x1c
                    0x001e                  WREG15 = 0x1e
                    0x001e                  _WREG15 = 0x1e
                    0x0020                  SPLIM = 0x20
                    0x0020                  _SPLIM = 0x20
                    0x0022                  ACCAL = 0x22
                    0x0022                  _ACCAL = 0x22
                    0x0024                  ACCAH = 0x24
                    0x0024                  _ACCAH = 0x24
                    0x0026                  ACCAU = 0x26
                    0x0026                  _ACCAU = 0x26
                    0x0028                  ACCBL = 0x28
                    0x0028                  _ACCBL = 0x28
                    0x002a                  ACCBH = 0x2a
                    0x002a                  _ACCBH = 0x2a
                    0x002c                  ACCBU = 0x2c
                    0x002c                  _ACCBU = 0x2c
                    0x002e                  PCL = 0x2e
                    0x002e                  _PCL = 0x2e
                    0x0030                  PCH = 0x30
                    0x0030                  _PCH = 0x30
                    0x0032                  TBLPAG = 0x32
                    0x0032                  _TBLPAG = 0x32
                    0x0034                  PSVPAG = 0x34
                    0x0034                  _PSVPAG = 0x34
                    0x0036                  RCOUNT = 0x36
                    0x0036                  _RCOUNT = 0x36
                    0x0038                  DCOUNT = 0x38
                    0x0038                  _DCOUNT = 0x38
                    0x003a                  DOSTARTL = 0x3a
                    0x003a                  _DOSTARTL = 0x3a
                    0x003c                  DOSTARTH = 0x3c
                    0x003c                  _DOSTARTH = 0x3c
                    0x003e                  DOENDL = 0x3e
                    0x003e                  _DOENDL = 0x3e
                    0x0040                  DOENDH = 0x40
                    0x0040                  _DOENDH = 0x40
                    0x0042                  SR = 0x42
                    0x0042                  _SR = 0x42
                    0x0042                  _SRbits = 0x42
                    0x0044                  CORCON = 0x44
                    0x0044                  _CORCON = 0x44
                    0x0044                  _CORCONbits = 0x44
                    0x0046                  MODCON = 0x46
                    0x0046                  _MODCON = 0x46
                    0x0046                  _MODCONbits = 0x46
                    0x0048                  XMODSRT = 0x48
                    0x0048                  _XMODSRT = 0x48
                    0x004a                  XMODEND = 0x4a
                    0x004a                  _XMODEND = 0x4a
                    0x004c                  YMODSRT = 0x4c
                    0x004c                  _YMODSRT = 0x4c
                    0x004e                  YMODEND = 0x4e
                    0x004e                  _YMODEND = 0x4e
                    0x0050                  XBREV = 0x50
                    0x0050                  _XBREV = 0x50
                    0x0050                  _XBREVbits = 0x50
                    0x0052                  DISICNT = 0x52
                    0x0052                  _DISICNT = 0x52
                    0x0052                  _DISICNTbits = 0x52
                    0x0080                  INTCON1 = 0x80
                    0x0080                  _INTCON1 = 0x80
                    0x0080                  _INTCON1bits = 0x80
                    0x0082                  INTCON2 = 0x82
                    0x0082                  _INTCON2 = 0x82
                    0x0082                  _INTCON2bits = 0x82
                    0x0084                  IFS0 = 0x84
                    0x0084                  _IFS0 = 0x84
                    0x0084                  _IFS0bits = 0x84
                    0x0086                  IFS1 = 0x86
                    0x0086                  _IFS1 = 0x86
                    0x0086                  _IFS1bits = 0x86
                    0x0088                  IFS2 = 0x88
                    0x0088                  _IFS2 = 0x88
                    0x0088                  _IFS2bits = 0x88
                    0x008c                  IEC0 = 0x8c
                    0x008c                  _IEC0 = 0x8c
                    0x008c                  _IEC0bits = 0x8c
                    0x008e                  IEC1 = 0x8e
                    0x008e                  _IEC1 = 0x8e
                    0x008e                  _IEC1bits = 0x8e
                    0x0090                  IEC2 = 0x90
                    0x0090                  _IEC2 = 0x90
                    0x0090                  _IEC2bits = 0x90
                    0x0094                  IPC0 = 0x94
                    0x0094                  _IPC0 = 0x94
                    0x0094                  _IPC0bits = 0x94
                    0x0096                  IPC1 = 0x96
                    0x0096                  _IPC1 = 0x96
                    0x0096                  _IPC1bits = 0x96
                    0x0098                  IPC2 = 0x98
                    0x0098                  _IPC2 = 0x98
                    0x0098                  _IPC2bits = 0x98
                    0x009a                  IPC3 = 0x9a
                    0x009a                  _IPC3 = 0x9a
                    0x009a                  _IPC3bits = 0x9a
                    0x009c                  IPC4 = 0x9c
                    0x009c                  _IPC4 = 0x9c
                    0x009c                  _IPC4bits = 0x9c
                    0x009e                  IPC5 = 0x9e
                    0x009e                  _IPC5 = 0x9e
                    0x009e                  _IPC5bits = 0x9e
                    0x00a0                  IPC6 = 0xa0
                    0x00a0                  _IPC6 = 0xa0
                    0x00a0                  _IPC6bits = 0xa0
                    0x00a6                  IPC9 = 0xa6
                    0x00a6                  _IPC9 = 0xa6
                    0x00a6                  _IPC9bits = 0xa6
                    0x00a8                  IPC10 = 0xa8
                    0x00a8                  _IPC10 = 0xa8
                    0x00a8                  _IPC10bits = 0xa8
                    0x00b0                  INTTREG = 0xb0
                    0x00b0                  _INTTREG = 0xb0
                    0x00b0                  _INTTREGbits = 0xb0
                    0x00c0                  CNEN1 = 0xc0
                    0x00c0                  _CNEN1 = 0xc0
                    0x00c0                  _CNEN1bits = 0xc0
                    0x00c2                  CNEN2 = 0xc2
                    0x00c2                  _CNEN2 = 0xc2
                    0x00c2                  _CNEN2bits = 0xc2
                    0x00c4                  CNPU1 = 0xc4
                    0x00c4                  _CNPU1 = 0xc4
                    0x00c4                  _CNPU1bits = 0xc4
                    0x00c6                  CNPU2 = 0xc6
                    0x00c6                  _CNPU2 = 0xc6
                    0x00c6                  _CNPU2bits = 0xc6
                    0x0100                  TMR1 = 0x100
                    0x0100                  _TMR1 = 0x100
                    0x0102                  PR1 = 0x102
                    0x0102                  _PR1 = 0x102
                    0x0104                  T1CON = 0x104
                    0x0104                  _T1CON = 0x104
                    0x0104                  _T1CONbits = 0x104
                    0x0106                  TMR2 = 0x106
                    0x0106                  _TMR2 = 0x106
                    0x0108                  TMR3HLD = 0x108
                    0x0108                  _TMR3HLD = 0x108
                    0x010a                  TMR3 = 0x10a
                    0x010a                  _TMR3 = 0x10a
                    0x010c                  PR2 = 0x10c
                    0x010c                  _PR2 = 0x10c
                    0x010e                  PR3 = 0x10e
                    0x010e                  _PR3 = 0x10e
                    0x0110                  T2CON = 0x110
                    0x0110                  _T2CON = 0x110
                    0x0110                  _T2CONbits = 0x110
                    0x0112                  T3CON = 0x112
                    0x0112                  _T3CON = 0x112
                    0x0112                  _T3CONbits = 0x112
                    0x0114                  TMR4 = 0x114
                    0x0114                  _TMR4 = 0x114
                    0x0116                  TMR5HLD = 0x116
                    0x0116                  _TMR5HLD = 0x116
                    0x0118                  TMR5 = 0x118
                    0x0118                  _TMR5 = 0x118
                    0x011a                  PR4 = 0x11a
                    0x011a                  _PR4 = 0x11a
                    0x011c                  PR5 = 0x11c
                    0x011c                  _PR5 = 0x11c
                    0x011e                  T4CON = 0x11e
                    0x011e                  _T4CON = 0x11e
                    0x011e                  _T4CONbits = 0x11e
                    0x0120                  T5CON = 0x120
                    0x0120                  _T5CON = 0x120
                    0x0120                  _T5CONbits = 0x120
                    0x0122                  QEICON = 0x122
                    0x0122                  _QEICON = 0x122
                    0x0122                  _QEICONbits = 0x122
                    0x0124                  DFLTCON = 0x124
                    0x0124                  _DFLTCON = 0x124
                    0x0124                  _DFLTCONbits = 0x124
                    0x0126                  POSCNT = 0x126
                    0x0126                  _POSCNT = 0x126
                    0x0128                  MAXCNT = 0x128
                    0x0128                  _MAXCNT = 0x128
                    0x0140                  IC1BUF = 0x140
                    0x0140                  _IC1BUF = 0x140
                    0x0142                  IC1CON = 0x142
                    0x0142                  _IC1CON = 0x142
                    0x0142                  _IC1CONbits = 0x142
                    0x0144                  IC2BUF = 0x144
                    0x0144                  _IC2BUF = 0x144
                    0x0146                  IC2CON = 0x146
                    0x0146                  _IC2CON = 0x146
                    0x0146                  _IC2CONbits = 0x146
                    0x0158                  IC7BUF = 0x158
                    0x0158                  _IC7BUF = 0x158
                    0x015a                  IC7CON = 0x15a
                    0x015a                  _IC7CON = 0x15a
                    0x015a                  _IC7CONbits = 0x15a
                    0x015c                  IC8BUF = 0x15c
                    0x015c                  _IC8BUF = 0x15c
                    0x015e                  IC8CON = 0x15e
                    0x015e                  _IC8CON = 0x15e
                    0x015e                  _IC8CONbits = 0x15e
                    0x0180                  OC1RS = 0x180
                    0x0180                  _OC1RS = 0x180
                    0x0182                  OC1R = 0x182
                    0x0182                  _OC1R = 0x182
                    0x0184                  OC1CON = 0x184
                    0x0184                  _OC1CON = 0x184
                    0x0184                  _OC1CONbits = 0x184
                    0x0186                  OC2RS = 0x186
                    0x0186                  _OC2RS = 0x186
                    0x0188                  OC2R = 0x188
                    0x0188                  _OC2R = 0x188
                    0x018a                  OC2CON = 0x18a
                    0x018a                  _OC2CON = 0x18a
                    0x018a                  _OC2CONbits = 0x18a
                    0x018c                  OC3RS = 0x18c
                    0x018c                  _OC3RS = 0x18c
                    0x018e                  OC3R = 0x18e
                    0x018e                  _OC3R = 0x18e
                    0x0190                  OC3CON = 0x190
                    0x0190                  _OC3CON = 0x190
                    0x0190                  _OC3CONbits = 0x190
                    0x0192                  OC4RS = 0x192
                    0x0192                  _OC4RS = 0x192
                    0x0194                  OC4R = 0x194
                    0x0194                  _OC4R = 0x194
                    0x0196                  OC4CON = 0x196
                    0x0196                  _OC4CON = 0x196
                    0x0196                  _OC4CONbits = 0x196
                    0x01c0                  PTCON = 0x1c0
                    0x01c0                  _PTCON = 0x1c0
                    0x01c0                  _PTCONbits = 0x1c0
                    0x01c2                  PTMR = 0x1c2
                    0x01c2                  _PTMR = 0x1c2
                    0x01c2                  _PTMRbits = 0x1c2
                    0x01c4                  PTPER = 0x1c4
                    0x01c4                  _PTPER = 0x1c4
                    0x01c4                  _PTPERbits = 0x1c4
                    0x01c6                  SEVTCMP = 0x1c6
                    0x01c6                  _SEVTCMP = 0x1c6
                    0x01c6                  _SEVTCMPbits = 0x1c6
                    0x01c8                  PWMCON1 = 0x1c8
                    0x01c8                  _PWMCON1 = 0x1c8
                    0x01c8                  _PWMCON1bits = 0x1c8
                    0x01ca                  PWMCON2 = 0x1ca
                    0x01ca                  _PWMCON2 = 0x1ca
                    0x01ca                  _PWMCON2bits = 0x1ca
                    0x01cc                  DTCON1 = 0x1cc
                    0x01cc                  _DTCON1 = 0x1cc
                    0x01cc                  _DTCON1bits = 0x1cc
                    0x01d0                  FLTACON = 0x1d0
                    0x01d0                  _FLTACON = 0x1d0
                    0x01d0                  _FLTACONbits = 0x1d0
                    0x01d4                  OVDCON = 0x1d4
                    0x01d4                  _OVDCON = 0x1d4
                    0x01d4                  _OVDCONbits = 0x1d4
                    0x01d6                  PDC1 = 0x1d6
                    0x01d6                  _PDC1 = 0x1d6
                    0x01d8                  PDC2 = 0x1d8
                    0x01d8                  _PDC2 = 0x1d8
                    0x01da                  PDC3 = 0x1da
                    0x01da                  _PDC3 = 0x1da
                    0x0200                  I2CRCV = 0x200
                    0x0200                  _I2CRCV = 0x200
                    0x0200                  _I2CRCVbits = 0x200
                    0x0202                  I2CTRN = 0x202
                    0x0202                  _I2CTRN = 0x202
                    0x0202                  _I2CTRNbits = 0x202
                    0x0204                  I2CBRG = 0x204
                    0x0204                  _I2CBRG = 0x204
                    0x0204                  _I2CBRGbits = 0x204
                    0x0206                  I2CCON = 0x206
                    0x0206                  _I2CCON = 0x206
                    0x0206                  _I2CCONbits = 0x206
                    0x0208                  I2CSTAT = 0x208
                    0x0208                  _I2CSTAT = 0x208
                    0x0208                  _I2CSTATbits = 0x208
                    0x020a                  I2CADD = 0x20a
                    0x020a                  _I2CADD = 0x20a
                    0x020a                  _I2CADDbits = 0x20a
                    0x020c                  U1MODE = 0x20c
                    0x020c                  _U1MODE = 0x20c
                    0x020c                  _U1MODEbits = 0x20c
                    0x020e                  U1STA = 0x20e
                    0x020e                  _U1STA = 0x20e
                    0x020e                  _U1STAbits = 0x20e
                    0x0210                  U1TXREG = 0x210
                    0x0210                  _U1TXREG = 0x210
                    0x0210                  _U1TXREGbits = 0x210
                    0x0212                  U1RXREG = 0x212
                    0x0212                  _U1RXREG = 0x212
                    0x0212                  _U1RXREGbits = 0x212
                    0x0214                  U1BRG = 0x214
                    0x0214                  _U1BRG = 0x214
                    0x0216                  U2MODE = 0x216
                    0x0216                  _U2MODE = 0x216
                    0x0216                  _U2MODEbits = 0x216
                    0x0218                  U2STA = 0x218
                    0x0218                  _U2STA = 0x218
                    0x0218                  _U2STAbits = 0x218
                    0x021a                  U2TXREG = 0x21a
                    0x021a                  _U2TXREG = 0x21a
                    0x021a                  _U2TXREGbits = 0x21a
                    0x021c                  U2RXREG = 0x21c
                    0x021c                  _U2RXREG = 0x21c
                    0x021c                  _U2RXREGbits = 0x21c
                    0x021e                  U2BRG = 0x21e
                    0x021e                  _U2BRG = 0x21e
                    0x0220                  SPI1STAT = 0x220
                    0x0220                  _SPI1STAT = 0x220
                    0x0220                  _SPI1STATbits = 0x220
                    0x0222                  SPI1CON = 0x222
                    0x0222                  _SPI1CON = 0x222
                    0x0222                  _SPI1CONbits = 0x222
                    0x0224                  SPI1BUF = 0x224
                    0x0224                  _SPI1BUF = 0x224
                    0x0280                  ADCBUF0 = 0x280
                    0x0280                  _ADCBUF0 = 0x280
                    0x0282                  ADCBUF1 = 0x282
                    0x0282                  _ADCBUF1 = 0x282
                    0x0284                  ADCBUF2 = 0x284
                    0x0284                  _ADCBUF2 = 0x284
                    0x0286                  ADCBUF3 = 0x286
                    0x0286                  _ADCBUF3 = 0x286
                    0x0288                  ADCBUF4 = 0x288
                    0x0288                  _ADCBUF4 = 0x288
                    0x028a                  ADCBUF5 = 0x28a
                    0x028a                  _ADCBUF5 = 0x28a
                    0x028c                  ADCBUF6 = 0x28c
                    0x028c                  _ADCBUF6 = 0x28c
                    0x028e                  ADCBUF7 = 0x28e
                    0x028e                  _ADCBUF7 = 0x28e
                    0x0290                  ADCBUF8 = 0x290
                    0x0290                  _ADCBUF8 = 0x290
                    0x0292                  ADCBUF9 = 0x292
                    0x0292                  _ADCBUF9 = 0x292
                    0x0294                  ADCBUFA = 0x294
                    0x0294                  _ADCBUFA = 0x294
                    0x0296                  ADCBUFB = 0x296
                    0x0296                  _ADCBUFB = 0x296
                    0x0298                  ADCBUFC = 0x298
                    0x0298                  _ADCBUFC = 0x298
                    0x029a                  ADCBUFD = 0x29a
                    0x029a                  _ADCBUFD = 0x29a
                    0x029c                  ADCBUFE = 0x29c
                    0x029c                  _ADCBUFE = 0x29c
                    0x029e                  ADCBUFF = 0x29e
                    0x029e                  _ADCBUFF = 0x29e
                    0x02a0                  ADCON1 = 0x2a0
                    0x02a0                  _ADCON1 = 0x2a0
                    0x02a0                  _ADCON1bits = 0x2a0
                    0x02a2                  ADCON2 = 0x2a2
                    0x02a2                  _ADCON2 = 0x2a2
                    0x02a2                  _ADCON2bits = 0x2a2
                    0x02a4                  ADCON3 = 0x2a4
                    0x02a4                  _ADCON3 = 0x2a4
                    0x02a4                  _ADCON3bits = 0x2a4
                    0x02a6                  ADCHS = 0x2a6
                    0x02a6                  _ADCHS = 0x2a6
                    0x02a6                  _ADCHSbits = 0x2a6
                    0x02a8                  ADPCFG = 0x2a8
                    0x02a8                  _ADPCFG = 0x2a8
                    0x02a8                  _ADPCFGbits = 0x2a8
                    0x02aa                  ADCSSL = 0x2aa
                    0x02aa                  _ADCSSL = 0x2aa
                    0x02aa                  _ADCSSLbits = 0x2aa
                    0x02c6                  TRISB = 0x2c6
                    0x02c6                  _TRISB = 0x2c6
                    0x02c6                  _TRISBbits = 0x2c6
                    0x02c8                  PORTB = 0x2c8
                    0x02c8                  _PORTB = 0x2c8
                    0x02c8                  _PORTBbits = 0x2c8
                    0x02ca                  LATB = 0x2ca
                    0x02ca                  _LATB = 0x2ca
                    0x02ca                  _LATBbits = 0x2ca
                    0x02cc                  TRISC = 0x2cc
                    0x02cc                  _TRISC = 0x2cc
                    0x02cc                  _TRISCbits = 0x2cc
                    0x02ce                  PORTC = 0x2ce
                    0x02ce                  _PORTC = 0x2ce
                    0x02ce                  _PORTCbits = 0x2ce
                    0x02d0                  LATC = 0x2d0
                    0x02d0                  _LATC = 0x2d0
                    0x02d0                  _LATCbits = 0x2d0
                    0x02d2                  TRISD = 0x2d2
                    0x02d2                  _TRISD = 0x2d2
                    0x02d2                  _TRISDbits = 0x2d2
                    0x02d4                  PORTD = 0x2d4
                    0x02d4                  _PORTD = 0x2d4
                    0x02d4                  _PORTDbits = 0x2d4
                    0x02d6                  LATD = 0x2d6
                    0x02d6                  _LATD = 0x2d6
                    0x02d6                  _LATDbits = 0x2d6
                    0x02d8                  TRISE = 0x2d8
                    0x02d8                  _TRISE = 0x2d8
                    0x02d8                  _TRISEbits = 0x2d8
                    0x02da                  PORTE = 0x2da
                    0x02da                  _PORTE = 0x2da
                    0x02da                  _PORTEbits = 0x2da
                    0x02dc                  LATE = 0x2dc
                    0x02dc                  _LATE = 0x2dc
                    0x02dc                  _LATEbits = 0x2dc
                    0x02de                  TRISF = 0x2de
                    0x02de                  _TRISF = 0x2de
                    0x02de                  _TRISFbits = 0x2de
                    0x02e0                  PORTF = 0x2e0
                    0x02e0                  _PORTF = 0x2e0
                    0x02e0                  _PORTFbits = 0x2e0
                    0x02e2                  LATF = 0x2e2
                    0x02e2                  _LATF = 0x2e2
                    0x02e2                  _LATFbits = 0x2e2
                    0x0300                  C1RXF0SID = 0x300
                    0x0300                  _C1RXF0SID = 0x300
                    0x0300                  _C1RXF0SIDbits = 0x300
                    0x0302                  C1RXF0EIDH = 0x302
                    0x0302                  _C1RXF0EIDH = 0x302
                    0x0302                  _C1RXF0EIDHbits = 0x302
                    0x0304                  C1RXF0EIDL = 0x304
                    0x0304                  _C1RXF0EIDL = 0x304
                    0x0304                  _C1RXF0EIDLbits = 0x304
                    0x0308                  C1RXF1SID = 0x308
                    0x0308                  _C1RXF1SID = 0x308
                    0x0308                  _C1RXF1SIDbits = 0x308
                    0x030a                  C1RXF1EIDH = 0x30a
                    0x030a                  _C1RXF1EIDH = 0x30a
                    0x030a                  _C1RXF1EIDHbits = 0x30a
                    0x030c                  C1RXF1EIDL = 0x30c
                    0x030c                  _C1RXF1EIDL = 0x30c
                    0x030c                  _C1RXF1EIDLbits = 0x30c
                    0x0310                  C1RXF2SID = 0x310
                    0x0310                  _C1RXF2SID = 0x310
                    0x0310                  _C1RXF2SIDbits = 0x310
                    0x0312                  C1RXF2EIDH = 0x312
                    0x0312                  _C1RXF2EIDH = 0x312
                    0x0312                  _C1RXF2EIDHbits = 0x312
                    0x0314                  C1RXF2EIDL = 0x314
                    0x0314                  _C1RXF2EIDL = 0x314
                    0x0314                  _C1RXF2EIDLbits = 0x314
                    0x0318                  C1RXF3SID = 0x318
                    0x0318                  _C1RXF3SID = 0x318
                    0x0318                  _C1RXF3SIDbits = 0x318
                    0x031a                  C1RXF3EIDH = 0x31a
                    0x031a                  _C1RXF3EIDH = 0x31a
                    0x031a                  _C1RXF3EIDHbits = 0x31a
                    0x031c                  C1RXF3EIDL = 0x31c
                    0x031c                  _C1RXF3EIDL = 0x31c
                    0x031c                  _C1RXF3EIDLbits = 0x31c
                    0x0320                  C1RXF4SID = 0x320
                    0x0320                  _C1RXF4SID = 0x320
                    0x0320                  _C1RXF4SIDbits = 0x320
                    0x0322                  C1RXF4EIDH = 0x322
                    0x0322                  _C1RXF4EIDH = 0x322
                    0x0322                  _C1RXF4EIDHbits = 0x322
                    0x0324                  C1RXF4EIDL = 0x324
                    0x0324                  _C1RXF4EIDL = 0x324
                    0x0324                  _C1RXF4EIDLbits = 0x324
                    0x0328                  C1RXF5SID = 0x328
                    0x0328                  _C1RXF5SID = 0x328
                    0x0328                  _C1RXF5SIDbits = 0x328
                    0x032a                  C1RXF5EIDH = 0x32a
                    0x032a                  _C1RXF5EIDH = 0x32a
                    0x032a                  _C1RXF5EIDHbits = 0x32a
                    0x032c                  C1RXF5EIDL = 0x32c
                    0x032c                  _C1RXF5EIDL = 0x32c
                    0x032c                  _C1RXF5EIDLbits = 0x32c
                    0x0330                  C1RXM0SID = 0x330
                    0x0330                  _C1RXM0SID = 0x330
                    0x0330                  _C1RXM0SIDbits = 0x330
                    0x0332                  C1RXM0EIDH = 0x332
                    0x0332                  _C1RXM0EIDH = 0x332
                    0x0332                  _C1RXM0EIDHbits = 0x332
                    0x0334                  C1RXM0EIDL = 0x334
                    0x0334                  _C1RXM0EIDL = 0x334
                    0x0334                  _C1RXM0EIDLbits = 0x334
                    0x0338                  C1RXM1SID = 0x338
                    0x0338                  _C1RXM1SID = 0x338
                    0x0338                  _C1RXM1SIDbits = 0x338
                    0x033a                  C1RXM1EIDH = 0x33a
                    0x033a                  _C1RXM1EIDH = 0x33a
                    0x033a                  _C1RXM1EIDHbits = 0x33a
                    0x033c                  C1RXM1EIDL = 0x33c
                    0x033c                  _C1RXM1EIDL = 0x33c
                    0x033c                  _C1RXM1EIDLbits = 0x33c
                    0x0340                  C1TX2SID = 0x340
                    0x0340                  _C1TX2SID = 0x340
                    0x0340                  _C1TX2SIDbits = 0x340
                    0x0342                  C1TX2EID = 0x342
                    0x0342                  _C1TX2EID = 0x342
                    0x0342                  _C1TX2EIDbits = 0x342
                    0x0344                  C1TX2DLC = 0x344
                    0x0344                  _C1TX2DLC = 0x344
                    0x0344                  _C1TX2DLCbits = 0x344
                    0x0346                  C1TX2B1 = 0x346
                    0x0346                  _C1TX2B1 = 0x346
                    0x0346                  _C1TX2B1bits = 0x346
                    0x0348                  C1TX2B2 = 0x348
                    0x0348                  _C1TX2B2 = 0x348
                    0x0348                  _C1TX2B2bits = 0x348
                    0x034a                  C1TX2B3 = 0x34a
                    0x034a                  _C1TX2B3 = 0x34a
                    0x034a                  _C1TX2B3bits = 0x34a
                    0x034c                  C1TX2B4 = 0x34c
                    0x034c                  _C1TX2B4 = 0x34c
                    0x034c                  _C1TX2B4bits = 0x34c
                    0x034e                  C1TX2CON = 0x34e
                    0x034e                  _C1TX2CON = 0x34e
                    0x034e                  _C1TX2CONbits = 0x34e
                    0x0350                  C1TX1SID = 0x350
                    0x0350                  _C1TX1SID = 0x350
                    0x0350                  _C1TX1SIDbits = 0x350
                    0x0352                  C1TX1EID = 0x352
                    0x0352                  _C1TX1EID = 0x352
                    0x0352                  _C1TX1EIDbits = 0x352
                    0x0354                  C1TX1DLC = 0x354
                    0x0354                  _C1TX1DLC = 0x354
                    0x0354                  _C1TX1DLCbits = 0x354
                    0x0356                  C1TX1B1 = 0x356
                    0x0356                  _C1TX1B1 = 0x356
                    0x0356                  _C1TX1B1bits = 0x356
                    0x0358                  C1TX1B2 = 0x358
                    0x0358                  _C1TX1B2 = 0x358
                    0x0358                  _C1TX1B2bits = 0x358
                    0x035a                  C1TX1B3 = 0x35a
                    0x035a                  _C1TX1B3 = 0x35a
                    0x035a                  _C1TX1B3bits = 0x35a
                    0x035c                  C1TX1B4 = 0x35c
                    0x035c                  _C1TX1B4 = 0x35c
                    0x035c                  _C1TX1B4bits = 0x35c
                    0x035e                  C1TX1CON = 0x35e
                    0x035e                  _C1TX1CON = 0x35e
                    0x035e                  _C1TX1CONbits = 0x35e
                    0x0360                  C1TX0SID = 0x360
                    0x0360                  _C1TX0SID = 0x360
                    0x0360                  _C1TX0SIDbits = 0x360
                    0x0362                  C1TX0EID = 0x362
                    0x0362                  _C1TX0EID = 0x362
                    0x0362                  _C1TX0EIDbits = 0x362
                    0x0364                  C1TX0DLC = 0x364
                    0x0364                  _C1TX0DLC = 0x364
                    0x0364                  _C1TX0DLCbits = 0x364
                    0x0366                  C1TX0B1 = 0x366
                    0x0366                  _C1TX0B1 = 0x366
                    0x0366                  _C1TX0B1bits = 0x366
                    0x0368                  C1TX0B2 = 0x368
                    0x0368                  _C1TX0B2 = 0x368
                    0x0368                  _C1TX0B2bits = 0x368
                    0x036a                  C1TX0B3 = 0x36a
                    0x036a                  _C1TX0B3 = 0x36a
                    0x036a                  _C1TX0B3bits = 0x36a
                    0x036c                  C1TX0B4 = 0x36c
                    0x036c                  _C1TX0B4 = 0x36c
                    0x036c                  _C1TX0B4bits = 0x36c
                    0x036e                  C1TX0CON = 0x36e
                    0x036e                  _C1TX0CON = 0x36e
                    0x036e                  _C1TX0CONbits = 0x36e
                    0x0370                  C1RX1SID = 0x370
                    0x0370                  _C1RX1SID = 0x370
                    0x0370                  _C1RX1SIDbits = 0x370
                    0x0372                  C1RX1EID = 0x372
                    0x0372                  _C1RX1EID = 0x372
                    0x0372                  _C1RX1EIDbits = 0x372
                    0x0374                  C1RX1DLC = 0x374
                    0x0374                  _C1RX1DLC = 0x374
                    0x0374                  _C1RX1DLCbits = 0x374
                    0x0376                  C1RX1B1 = 0x376
                    0x0376                  _C1RX1B1 = 0x376
                    0x0376                  _C1RX1B1bits = 0x376
                    0x0378                  C1RX1B2 = 0x378
                    0x0378                  _C1RX1B2 = 0x378
                    0x0378                  _C1RX1B2bits = 0x378
                    0x037a                  C1RX1B3 = 0x37a
                    0x037a                  _C1RX1B3 = 0x37a
                    0x037a                  _C1RX1B3bits = 0x37a
                    0x037c                  C1RX1B4 = 0x37c
                    0x037c                  _C1RX1B4 = 0x37c
                    0x037c                  _C1RX1B4bits = 0x37c
                    0x037e                  C1RX1CON = 0x37e
                    0x037e                  _C1RX1CON = 0x37e
                    0x037e                  _C1RX1CONbits = 0x37e
                    0x0380                  C1RX0SID = 0x380
                    0x0380                  _C1RX0SID = 0x380
                    0x0380                  _C1RX0SIDbits = 0x380
                    0x0382                  C1RX0EID = 0x382
                    0x0382                  _C1RX0EID = 0x382
                    0x0382                  _C1RX0EIDbits = 0x382
                    0x0384                  C1RX0DLC = 0x384
                    0x0384                  _C1RX0DLC = 0x384
                    0x0384                  _C1RX0DLCbits = 0x384
                    0x0386                  C1RX0B1 = 0x386
                    0x0386                  _C1RX0B1 = 0x386
                    0x0386                  _C1RX0B1bits = 0x386
                    0x0388                  C1RX0B2 = 0x388
                    0x0388                  _C1RX0B2 = 0x388
                    0x0388                  _C1RX0B2bits = 0x388
                    0x038a                  C1RX0B3 = 0x38a
                    0x038a                  _C1RX0B3 = 0x38a
                    0x038a                  _C1RX0B3bits = 0x38a
                    0x038c                  C1RX0B4 = 0x38c
                    0x038c                  _C1RX0B4 = 0x38c
                    0x038c                  _C1RX0B4bits = 0x38c
                    0x038e                  C1RX0CON = 0x38e
                    0x038e                  _C1RX0CON = 0x38e
                    0x038e                  _C1RX0CONbits = 0x38e
                    0x0390                  C1CTRL = 0x390
                    0x0390                  _C1CTRL = 0x390
                    0x0390                  _C1CTRLbits = 0x390
                    0x0392                  C1CFG1 = 0x392
                    0x0392                  _C1CFG1 = 0x392
                    0x0392                  _C1CFG1bits = 0x392
                    0x0394                  C1CFG2 = 0x394
                    0x0394                  _C1CFG2 = 0x394
                    0x0394                  _C1CFG2bits = 0x394
                    0x0396                  C1INTF = 0x396
                    0x0396                  _C1INTF = 0x396
                    0x0396                  _C1INTFbits = 0x396
                    0x0398                  C1INTE = 0x398
                    0x0398                  _C1INTE = 0x398
                    0x0398                  _C1INTEbits = 0x398
                    0x039a                  C1EC = 0x39a
                    0x039a                  _C1EC = 0x39a
                    0x039a                  _C1ECbits = 0x39a
                    0x039a                  C1RERRCNT = 0x39a
                    0x039a                  _C1RERRCNT = 0x39a
                    0x039b                  C1TERRCNT = 0x39b
                    0x039b                  _C1TERRCNT = 0x39b
                    0x0740                  RCON = 0x740
                    0x0740                  _RCON = 0x740
                    0x0740                  _RCONbits = 0x740
                    0x0742                  OSCCON = 0x742
                    0x0742                  _OSCCON = 0x742
                    0x0742                  _OSCCONbits = 0x742
                    0x0742                  OSCCONL = 0x742
                    0x0742                  _OSCCONL = 0x742
                    0x0743                  OSCCONH = 0x743
                    0x0743                  _OSCCONH = 0x743
                    0x0760                  NVMCON = 0x760
                    0x0760                  _NVMCON = 0x760
                    0x0760                  _NVMCONbits = 0x760
                    0x0762                  NVMADR = 0x762
                    0x0762                  _NVMADR = 0x762
                    0x0764                  NVMADRU = 0x764
                    0x0764                  _NVMADRU = 0x764
                    0x0764                  _NVMADRUbits = 0x764
                    0x0766                  NVMKEY = 0x766
                    0x0766                  _NVMKEY = 0x766
                    0x0770                  PMD1 = 0x770
                    0x0770                  _PMD1 = 0x770
                    0x0770                  _PMD1bits = 0x770
                    0x0772                  PMD2 = 0x772
                    0x0772                  _PMD2 = 0x772
                    0x0772                  _PMD2bits = 0x772
                    0x0022                  ACCA = 0x22
                    0x0022                  _ACCA = 0x22
                    0x0028                  ACCB = 0x28
                    0x0028                  _ACCB = 0x28
                    0x0300                  CAN1 = 0x300
                    0x0300                  _CAN1 = 0x300
                    0x0140                  IC1 = 0x140
                    0x0140                  _IC1 = 0x140
                    0x0144                  IC2 = 0x144
                    0x0144                  _IC2 = 0x144
                    0x0158                  IC7 = 0x158
                    0x0158                  _IC7 = 0x158
                    0x015c                  IC8 = 0x15c
                    0x015c                  _IC8 = 0x15c
                    0x0180                  OC1 = 0x180
                    0x0180                  _OC1 = 0x180
                    0x0186                  OC2 = 0x186
                    0x0186                  _OC2 = 0x186
                    0x018c                  OC3 = 0x18c
                    0x018c                  _OC3 = 0x18c
                    0x0192                  OC4 = 0x192
                    0x0192                  _OC4 = 0x192
                    0x0220                  SPI1 = 0x220
                    0x0220                  _SPI1 = 0x220
                    0x020c                  UART1 = 0x20c
                    0x020c                  _UART1 = 0x20c
                    0x0216                  UART2 = 0x216
                    0x0216                  _UART2 = 0x216
START GROUP
LOAD /opt/microchip/xc16/v1.26/bin/bin/../../lib/liblega-pic30-elf.a
LOAD /opt/microchip/xc16/v1.26/bin/bin/../../lib/libm-elf.a
LOAD /opt/microchip/xc16/v1.26/bin/bin/../../lib/liblega-c-elf.a
END GROUP
OUTPUT(dist/default/production/l1.X.production.elf elf32-pic30)
LOAD jump_table
LOAD default_isr
LOAD data_init
LOAD shared_data_init

.debug_pubtypes
                  0x000018        0x20b
 .debug_pubtypes
                  0x000018        0x20b build/default/production/main.o

__c30_signature
                  0x000223        0x108
 __c30_signature
                  0x000223          0x6 build/default/production/main.o
 __c30_signature
                  0x000229          0x6 /opt/microchip/xc16/v1.26/bin/bin/../../lib/dsPIC30F/libp30F4011-elf.a(OpenTimer3.o)
 __c30_signature
                  0x00022f          0x6 /opt/microchip/xc16/v1.26/bin/bin/../../lib/dsPIC30F/libp30F4011-elf.a(OpenUART2.o)
 __c30_signature
                  0x000235          0x6 /opt/microchip/xc16/v1.26/bin/bin/../../lib/liblega-pic30-elf.a(crt0_standard.o)
 __c30_signature
                  0x00023b          0x6 /opt/microchip/xc16/v1.26/bin/bin/../../lib/liblega-pic30-elf.a(data_init_standard.o)
 __c30_signature
                  0x000241          0x6 /opt/microchip/xc16/v1.26/bin/bin/../../lib/liblega-pic30-elf.a(c30_uart.Leo)
 __c30_signature
                  0x000247          0x6 /opt/microchip/xc16/v1.26/bin/bin/../../lib/liblega-c-elf.a(fputc.XXeo)
 __c30_signature
                  0x00024d          0x6 /opt/microchip/xc16/v1.26/bin/bin/../../lib/liblega-c-elf.a(puts.XXeo)
 __c30_signature
                  0x000253          0x6 /opt/microchip/xc16/v1.26/bin/bin/../../lib/liblega-c-elf.a(rand.XXeo)
 __c30_signature
                  0x000259          0x6 /opt/microchip/xc16/v1.26/bin/bin/../../lib/liblega-c-elf.a(xfiles.XXeo)
 __c30_signature
                  0x00025f          0x6 /opt/microchip/xc16/v1.26/bin/bin/../../lib/liblega-c-elf.a(xfwprep.XXeo)
 __c30_signature
                  0x000265          0x6 /opt/microchip/xc16/v1.26/bin/bin/../../lib/liblega-c-elf.a(xstoul.XXeo)
 __c30_signature
                  0x00026b          0x6 /opt/microchip/xc16/v1.26/bin/bin/../../lib/liblega-c-elf.a(isspace.XXelso)
 __c30_signature
                  0x000271          0x6 /opt/microchip/xc16/v1.26/bin/bin/../../lib/liblega-c-elf.a(tolower.XXelso)
 __c30_signature
                  0x000277          0x6 /opt/microchip/xc16/v1.26/bin/bin/../../lib/liblega-c-elf.a(errno.XXelo)
 __c30_signature
                  0x00027d          0x6 /opt/microchip/xc16/v1.26/bin/bin/../../lib/liblega-c-elf.a(fclose.XXelo)
 __c30_signature
                  0x000283          0x6 /opt/microchip/xc16/v1.26/bin/bin/../../lib/liblega-c-elf.a(fflush.XXelo)
 __c30_signature
                  0x000289          0x6 /opt/microchip/xc16/v1.26/bin/bin/../../lib/liblega-c-elf.a(xatexit.XXelo)
 __c30_signature
                  0x00028f          0x6 /opt/microchip/xc16/v1.26/bin/bin/../../lib/liblega-c-elf.a(printf_cdnopuxX.XXeo)
 __c30_signature
                  0x000295          0x6 /opt/microchip/xc16/v1.26/bin/bin/../../lib/liblega-c-elf.a(xprintf_cdnopuxX.XXeo)
 __c30_signature
                  0x00029b          0x6 /opt/microchip/xc16/v1.26/bin/bin/../../lib/liblega-c-elf.a(xputfld_cdnopuxX.XXeo)
 __c30_signature
                  0x0002a1          0x6 /opt/microchip/xc16/v1.26/bin/bin/../../lib/liblega-c-elf.a(fputs.XXeo)
 __c30_signature
                  0x0002a7          0x6 /opt/microchip/xc16/v1.26/bin/bin/../../lib/liblega-c-elf.a(free.XXeo)
 __c30_signature
                  0x0002ad          0x6 /opt/microchip/xc16/v1.26/bin/bin/../../lib/liblega-c-elf.a(fwrite.XXeo)
 __c30_signature
                  0x0002b3          0x6 /opt/microchip/xc16/v1.26/bin/bin/../../lib/liblega-c-elf.a(malloc.XXeo)
 __c30_signature
                  0x0002b9          0x6 /opt/microchip/xc16/v1.26/bin/bin/../../lib/liblega-c-elf.a(memchr.XXeo)
 __c30_signature
                  0x0002bf          0x6 /opt/microchip/xc16/v1.26/bin/bin/../../lib/liblega-c-elf.a(memcpy.XXeo)
 __c30_signature
                  0x0002c5          0x6 /opt/microchip/xc16/v1.26/bin/bin/../../lib/liblega-c-elf.a(strchr.XXeo)
 __c30_signature
                  0x0002cb          0x6 /opt/microchip/xc16/v1.26/bin/bin/../../lib/liblega-c-elf.a(strlen.XXeo)
 __c30_signature
                  0x0002d1          0x6 /opt/microchip/xc16/v1.26/bin/bin/../../lib/liblega-c-elf.a(strrchr.XXeo)
 __c30_signature
                  0x0002d7          0x6 /opt/microchip/xc16/v1.26/bin/bin/../../lib/liblega-c-elf.a(xgetmem.XXeo)
 __c30_signature
                  0x0002dd          0x6 /opt/microchip/xc16/v1.26/bin/bin/../../lib/liblega-c-elf.a(xlitob.XXeo)
 __c30_signature
                  0x0002e3          0x6 /opt/microchip/xc16/v1.26/bin/bin/../../lib/liblega-c-elf.a(xputtxt.XXeo)
 __c30_signature
                  0x0002e9          0x6 /opt/microchip/xc16/v1.26/bin/bin/../../lib/liblega-c-elf.a(xvacopy.XXeo)
 __c30_signature
                  0x0002ef          0x6 /opt/microchip/xc16/v1.26/bin/bin/../../lib/liblega-pic30-elf.a(close.Leo)
 __c30_signature
                  0x0002f5          0x6 /opt/microchip/xc16/v1.26/bin/bin/../../lib/liblega-pic30-elf.a(write.Leo)
 __c30_signature
                  0x0002fb          0x6 /opt/microchip/xc16/v1.26/bin/bin/../../lib/liblega-pic30-elf.a(remove.Leo)
 __c30_signature
                  0x000301          0x6 /opt/microchip/xc16/v1.26/bin/bin/../../lib/liblega-pic30-elf.a(sbrk.Leo)
 __c30_signature
                  0x000307          0x6 /opt/microchip/xc16/v1.26/bin/bin/../../lib/liblega-pic30-elf.a(brk.Lelo)
 __c30_signature
                  0x00030d          0x6 /opt/microchip/xc16/v1.26/bin/bin/../../lib/libm-elf.a(divsi3.eo)
 __c30_signature
                  0x000313          0x6 /opt/microchip/xc16/v1.26/bin/bin/../../lib/libm-elf.a(udivsi3.eo)
 __c30_signature
                  0x000319          0x6 /opt/microchip/xc16/v1.26/bin/bin/../../lib/libm-elf.a(umodsi3.eo)
 __c30_signature
                  0x00031f          0x6 /opt/microchip/xc16/v1.26/bin/bin/../../lib/libm-elf.a(mulsi3.eo)
 __c30_signature
                  0x000325          0x6 /opt/microchip/xc16/v1.26/bin/bin/../../lib/libm-elf.a(divmoddi3.eo)

.nbss               0x0800        0x424
 .nbss              0x0800        0x424 build/default/production/main.o
                    0x0800                  _str_pos
                    0x0802                  _rx_buf
                    0x0816                  _command_avail
                    0x0818                  _t_prev
                    0x081a                  _t_cur
                    0x081c                  _t_enable
                    0x081e                  _jitter
                    0x0820                  _PRj
                    0x0822                  _PRf
                    0x0824                  _dat

.ndata              0x0c24          0x4
 .ndata             0x0c24          0x4 build/default/production/main.o
                    0x0c24                  _t_lvl
                    0x0c26                  _dati

.bss                0x0c28         0x8a
 .bss               0x0c28         0x8a /opt/microchip/xc16/v1.26/bin/bin/../../lib/liblega-c-elf.a(rand.XXeo)
                    0x0c28                  __Randinit
                    0x0c2a                  __Tls_setup__Randinit
                    0x0c2c                  __Tls_setup__Randseed

.data               0x0cb2        0x112
 .data              0x0cb2         0x88 /opt/microchip/xc16/v1.26/bin/bin/../../lib/liblega-c-elf.a(xfiles.XXeo)
                    0x0cb2                  __Stdin
                    0x0cda                  __Stdout
                    0x0d02                  __Stderr
                    0x0d2a                  __Files
 .data              0x0d3a         0x4a /opt/microchip/xc16/v1.26/bin/bin/../../lib/liblega-c-elf.a(xstoul.XXeo)
 .data              0x0d84         0x22 /opt/microchip/xc16/v1.26/bin/bin/../../lib/liblega-c-elf.a(xlitob.XXeo)
 .data              0x0da6         0x1a /opt/microchip/xc16/v1.26/bin/bin/../../lib/liblega-c-elf.a(xprintf_cdnopuxX.XXeo)
 .data              0x0dc0          0x4 /opt/microchip/xc16/v1.26/bin/bin/../../lib/liblega-c-elf.a(rand.XXeo)
                    0x0dc0                  __Randseed

.bss                0x0dc4          0x8
 .bss               0x0dc4          0x4 /opt/microchip/xc16/v1.26/bin/bin/../../lib/liblega-c-elf.a(errno.XXelo)
                    0x0dc4                  _errno
                    0x0dc6                  __Tls_setup_errno
 .bss               0x0dc8          0x4 /opt/microchip/xc16/v1.26/bin/bin/../../lib/liblega-c-elf.a(malloc.XXeo)
                    0x0dc8                  __Aldata

.data               0x0dcc          0x2
 .data              0x0dcc          0x2 /opt/microchip/xc16/v1.26/bin/bin/../../lib/liblega-pic30-elf.a(c30_uart.Leo)
                    0x0dcc                  ___C30_UART

.bss                0x0dce          0x2
 .bss               0x0dce          0x2 /opt/microchip/xc16/v1.26/bin/bin/../../lib/liblega-c-elf.a(fclose.XXelo)

.data               0x0dd0          0x2
 .data              0x0dd0          0x2 /opt/microchip/xc16/v1.26/bin/bin/../../lib/liblega-c-elf.a(malloc.XXeo)
                    0x0dd0                  __Size_block

.bss                0x0dd2          0x2
 .bss               0x0dd2          0x2 /opt/microchip/xc16/v1.26/bin/bin/../../lib/liblega-pic30-elf.a(brk.Lelo)
                    0x0dd2                  ___curbrk

.ivt._U2RXInterrupt
                  0x000044          0x2
 .ivt._U2RXInterrupt
                  0x000044          0x2 build/default/production/main.o

.ivt._ADCInterrupt
                  0x00002a          0x2
 .ivt._ADCInterrupt
                  0x00002a          0x2 build/default/production/main.o

.ivt._T3Interrupt
                  0x000022          0x2
 .ivt._T3Interrupt
                  0x000022          0x2 build/default/production/main.o

.const              0x9356         0x46 load address 0x001356  
 .const             0x9356         0x46 build/default/production/main.o

.text             0x00139c        0x300
 .text            0x00139c        0x300 build/default/production/main.o
                  0x00139c                  _intrep_command
                  0x001454                  __U2RXInterrupt
                  0x001520                  __ADCInterrupt
                  0x001574                  __T3Interrupt
                  0x0015e8                  _main

.dinit            0x00169c        0x11a
 .dinit           0x00169c        0x11a data_init

.shared.dinit     0x0017b6          0x2
 .shared.dinit    0x0017b6          0x2 shared_data_init
